{
  "address": "0xfab0690e638d43ced5442d91Bf6e4C4B9546F341",
  "abi": [
    {
      "inputs": [
        {
          "internalType": "address",
          "name": "vrfCoordinatorV2",
          "type": "address"
        },
        {
          "internalType": "uint256",
          "name": "entranceFee",
          "type": "uint256"
        },
        {
          "internalType": "bytes32",
          "name": "gasLane",
          "type": "bytes32"
        },
        {
          "internalType": "uint64",
          "name": "subscriptionId",
          "type": "uint64"
        },
        {
          "internalType": "uint32",
          "name": "callbackGasLimit",
          "type": "uint32"
        },
        {
          "internalType": "uint256",
          "name": "interval",
          "type": "uint256"
        }
      ],
      "stateMutability": "nonpayable",
      "type": "constructor"
    },
    {
      "inputs": [
        {
          "internalType": "address",
          "name": "have",
          "type": "address"
        },
        {
          "internalType": "address",
          "name": "want",
          "type": "address"
        }
      ],
      "name": "OnlyCoordinatorCanFulfill",
      "type": "error"
    },
    {
      "inputs": [],
      "name": "RaffleTransferFailed",
      "type": "error"
    },
    {
      "inputs": [],
      "name": "Raffle_NotEnoughETHEntered",
      "type": "error"
    },
    {
      "inputs": [],
      "name": "Raffle_NotOpen",
      "type": "error"
    },
    {
      "inputs": [
        {
          "internalType": "uint256",
          "name": "currentBalance",
          "type": "uint256"
        },
        {
          "internalType": "uint256",
          "name": "numPlayers",
          "type": "uint256"
        },
        {
          "internalType": "uint256",
          "name": "raffleState",
          "type": "uint256"
        }
      ],
      "name": "Raffle_UpkeepNotNeeded",
      "type": "error"
    },
    {
      "anonymous": false,
      "inputs": [
        {
          "indexed": true,
          "internalType": "address",
          "name": "player",
          "type": "address"
        }
      ],
      "name": "RaffleEnter",
      "type": "event"
    },
    {
      "anonymous": false,
      "inputs": [
        {
          "indexed": true,
          "internalType": "uint256",
          "name": "requestId",
          "type": "uint256"
        }
      ],
      "name": "RequestedRaffleWinner",
      "type": "event"
    },
    {
      "anonymous": false,
      "inputs": [
        {
          "indexed": true,
          "internalType": "address",
          "name": "winner",
          "type": "address"
        }
      ],
      "name": "WinnerPicked",
      "type": "event"
    },
    {
      "inputs": [
        {
          "internalType": "bytes",
          "name": "",
          "type": "bytes"
        }
      ],
      "name": "checkUpkeep",
      "outputs": [
        {
          "internalType": "bool",
          "name": "upkeepNeeded",
          "type": "bool"
        },
        {
          "internalType": "bytes",
          "name": "",
          "type": "bytes"
        }
      ],
      "stateMutability": "view",
      "type": "function"
    },
    {
      "inputs": [],
      "name": "enterRaffle",
      "outputs": [],
      "stateMutability": "payable",
      "type": "function"
    },
    {
      "inputs": [],
      "name": "getBalance",
      "outputs": [
        {
          "internalType": "uint256",
          "name": "",
          "type": "uint256"
        }
      ],
      "stateMutability": "view",
      "type": "function"
    },
    {
      "inputs": [],
      "name": "getEntranceFee",
      "outputs": [
        {
          "internalType": "uint256",
          "name": "",
          "type": "uint256"
        }
      ],
      "stateMutability": "view",
      "type": "function"
    },
    {
      "inputs": [],
      "name": "getInterval",
      "outputs": [
        {
          "internalType": "uint256",
          "name": "",
          "type": "uint256"
        }
      ],
      "stateMutability": "view",
      "type": "function"
    },
    {
      "inputs": [],
      "name": "getLatestTimeStamp",
      "outputs": [
        {
          "internalType": "uint256",
          "name": "",
          "type": "uint256"
        }
      ],
      "stateMutability": "view",
      "type": "function"
    },
    {
      "inputs": [],
      "name": "getNumOfPlayers",
      "outputs": [
        {
          "internalType": "uint256",
          "name": "",
          "type": "uint256"
        }
      ],
      "stateMutability": "view",
      "type": "function"
    },
    {
      "inputs": [],
      "name": "getNumWords",
      "outputs": [
        {
          "internalType": "uint256",
          "name": "",
          "type": "uint256"
        }
      ],
      "stateMutability": "pure",
      "type": "function"
    },
    {
      "inputs": [],
      "name": "getNumberOfPlayers",
      "outputs": [
        {
          "internalType": "uint256",
          "name": "",
          "type": "uint256"
        }
      ],
      "stateMutability": "view",
      "type": "function"
    },
    {
      "inputs": [
        {
          "internalType": "uint256",
          "name": "index",
          "type": "uint256"
        }
      ],
      "name": "getPlayer",
      "outputs": [
        {
          "internalType": "address",
          "name": "",
          "type": "address"
        }
      ],
      "stateMutability": "view",
      "type": "function"
    },
    {
      "inputs": [],
      "name": "getRaffleState",
      "outputs": [
        {
          "internalType": "enum Raffle.RaffleState",
          "name": "",
          "type": "uint8"
        }
      ],
      "stateMutability": "view",
      "type": "function"
    },
    {
      "inputs": [],
      "name": "getRecentWinner",
      "outputs": [
        {
          "internalType": "address",
          "name": "",
          "type": "address"
        }
      ],
      "stateMutability": "view",
      "type": "function"
    },
    {
      "inputs": [],
      "name": "getRequestConfirmations",
      "outputs": [
        {
          "internalType": "uint256",
          "name": "",
          "type": "uint256"
        }
      ],
      "stateMutability": "pure",
      "type": "function"
    },
    {
      "inputs": [],
      "name": "getSubscriptionId",
      "outputs": [
        {
          "internalType": "uint64",
          "name": "",
          "type": "uint64"
        }
      ],
      "stateMutability": "view",
      "type": "function"
    },
    {
      "inputs": [
        {
          "internalType": "bytes",
          "name": "",
          "type": "bytes"
        }
      ],
      "name": "performUpkeep",
      "outputs": [],
      "stateMutability": "nonpayable",
      "type": "function"
    },
    {
      "inputs": [
        {
          "internalType": "uint256",
          "name": "requestId",
          "type": "uint256"
        },
        {
          "internalType": "uint256[]",
          "name": "randomWords",
          "type": "uint256[]"
        }
      ],
      "name": "rawFulfillRandomWords",
      "outputs": [],
      "stateMutability": "nonpayable",
      "type": "function"
    }
  ],
  "transactionHash": "0x35b51394e3b896ff81b335ab5947d1269163a690f214f9493782253ec65d8a4b",
  "args": [
    "0x2Ca8E0C643bDe4C2E08ab1fA0da3401AdAD7734D",
    "10000000000000000",
    "0x79d3d8832d904592c0bf9818b621522c988bb8b0c05cdc3b15aea1b6e8db0c15",
    "3712",
    "5000000",
    "30"
  ],
  "numDeployments": 1,
  "solcInputHash": "b94e82ee8d8efb7fc50b7d723f61e11d",
  "bytecode": "0x6101606040523480156200001257600080fd5b506040516200191238038062001912833981810160405281019062000038919062000294565b858073ffffffffffffffffffffffffffffffffffffffff1660808173ffffffffffffffffffffffffffffffffffffffff1681525050508460a081815250508573ffffffffffffffffffffffffffffffffffffffff1660c08173ffffffffffffffffffffffffffffffffffffffff16815250508360e081815250508267ffffffffffffffff166101008167ffffffffffffffff16815250508163ffffffff166101208163ffffffff16815250506000600160146101000a81548160ff021916908360018111156200010d576200010c62000330565b5b0217905550426002819055508061014081815250505050505050506200035f565b600080fd5b600073ffffffffffffffffffffffffffffffffffffffff82169050919050565b6000620001608262000133565b9050919050565b620001728162000153565b81146200017e57600080fd5b50565b600081519050620001928162000167565b92915050565b6000819050919050565b620001ad8162000198565b8114620001b957600080fd5b50565b600081519050620001cd81620001a2565b92915050565b6000819050919050565b620001e881620001d3565b8114620001f457600080fd5b50565b6000815190506200020881620001dd565b92915050565b600067ffffffffffffffff82169050919050565b6200022d816200020e565b81146200023957600080fd5b50565b6000815190506200024d8162000222565b92915050565b600063ffffffff82169050919050565b6200026e8162000253565b81146200027a57600080fd5b50565b6000815190506200028e8162000263565b92915050565b60008060008060008060c08789031215620002b457620002b36200012e565b5b6000620002c489828a0162000181565b9650506020620002d789828a01620001bc565b9550506040620002ea89828a01620001f7565b9450506060620002fd89828a016200023c565b93505060806200031089828a016200027d565b92505060a06200032389828a01620001bc565b9150509295509295509295565b7f4e487b7100000000000000000000000000000000000000000000000000000000600052602160045260246000fd5b60805160a05160c05160e05161010051610120516101405161153c620003d6600039600081816108ad015261091b0152600061075f01526000818161073c01526109430152600061071b015260006106df0152600081816103ac01526104b10152600081816103f10152610445015261153c6000f3fe6080604052600436106100f35760003560e01c806353a2c19a1161008a57806391ad27b41161005957806391ad27b4146102ea578063de3d9fb714610315578063e55ae4e814610340578063fd6673f51461037d576100f3565b806353a2c19a1461022b578063565429de146102565780635f1b0fd8146102815780636e04ff0d146102ac576100f3565b80632cfcc539116100c65780632cfcc539146101a2578063320229eb146101ac5780634585e33b146101d7578063473f1ddc14610200576100f3565b806309bc33a7146100f8578063115cbaf51461012357806312065fe01461014e5780631fe543e314610179575b600080fd5b34801561010457600080fd5b5061010d6103a8565b60405161011a9190610cab565b60405180910390f35b34801561012f57600080fd5b506101386103d0565b6040516101459190610d3d565b60405180910390f35b34801561015a57600080fd5b506101636103e7565b6040516101709190610cab565b60405180910390f35b34801561018557600080fd5b506101a0600480360381019061019b9190610ef1565b6103ef565b005b6101aa6104af565b005b3480156101b857600080fd5b506101c161061e565b6040516101ce9190610cab565b60405180910390f35b3480156101e357600080fd5b506101fe60048036038101906101f99190610fa8565b610628565b005b34801561020c57600080fd5b50610215610818565b6040516102229190611036565b60405180910390f35b34801561023757600080fd5b50610240610842565b60405161024d9190610cab565b60405180910390f35b34801561026257600080fd5b5061026b610851565b6040516102789190610cab565b60405180910390f35b34801561028d57600080fd5b5061029661085d565b6040516102a39190610cab565b60405180910390f35b3480156102b857600080fd5b506102d360048036038101906102ce9190611106565b61086a565b6040516102e19291906111e9565b60405180910390f35b3480156102f657600080fd5b506102ff610917565b60405161030c9190610cab565b60405180910390f35b34801561032157600080fd5b5061032a61093f565b604051610337919061123c565b60405180910390f35b34801561034c57600080fd5b5061036760048036038101906103629190611257565b610967565b6040516103749190611036565b60405180910390f35b34801561038957600080fd5b506103926109ae565b60405161039f9190610cab565b60405180910390f35b60007f0000000000000000000000000000000000000000000000000000000000000000905090565b6000600160149054906101000a900460ff16905090565b600047905090565b7f000000000000000000000000000000000000000000000000000000000000000073ffffffffffffffffffffffffffffffffffffffff163373ffffffffffffffffffffffffffffffffffffffff16146104a157337f00000000000000000000000000000000000000000000000000000000000000006040517f1cf993f4000000000000000000000000000000000000000000000000000000008152600401610498929190611284565b60405180910390fd5b6104ab82826109ba565b5050565b7f0000000000000000000000000000000000000000000000000000000000000000341015610509576040517f74938f2700000000000000000000000000000000000000000000000000000000815260040160405180910390fd5b6000339080600181540180825580915050600190039060005260206000200160009091909190916101000a81548173ffffffffffffffffffffffffffffffffffffffff021916908373ffffffffffffffffffffffffffffffffffffffff1602179055503373ffffffffffffffffffffffffffffffffffffffff167f0805e1d667bddb8a95f0f09880cf94f403fb596ce79928d9f29b74203ba284d460405160405180910390a2600060018111156105c3576105c2610cc6565b5b600160149054906101000a900460ff1660018111156105e5576105e4610cc6565b5b1461061c576040517fd6e19a8d00000000000000000000000000000000000000000000000000000000815260040160405180910390fd5b565b6000600254905090565b60006106426040518060200160405280600081525061086a565b509050806106b15747600080549050600160149054906101000a900460ff16600181111561067357610672610cc6565b5b6040517fe059521b0000000000000000000000000000000000000000000000000000000081526004016106a8939291906112ad565b60405180910390fd5b60018060146101000a81548160ff021916908360018111156106d6576106d5610cc6565b5b021790555060007f000000000000000000000000000000000000000000000000000000000000000073ffffffffffffffffffffffffffffffffffffffff16635d3b1d307f00000000000000000000000000000000000000000000000000000000000000007f000000000000000000000000000000000000000000000000000000000000000060037f000000000000000000000000000000000000000000000000000000000000000060016040518663ffffffff1660e01b81526004016107a0959493929190611339565b6020604051808303816000875af11580156107bf573d6000803e3d6000fd5b505050506040513d601f19601f820116820180604052508101906107e391906113a1565b9050807fcd6e45c8998311cab7e9d4385596cac867e20a0587194b954fa3a731c93ce78b60405160405180910390a250505050565b6000600160009054906101000a900473ffffffffffffffffffffffffffffffffffffffff16905090565b6000600163ffffffff16905090565b60008080549050905090565b6000600361ffff16905090565b600060606000600160149054906101000a900460ff16600181111561089257610891610cc6565b5b600060018111156108a6576108a5610cc6565b5b14905060007f0000000000000000000000000000000000000000000000000000000000000000600254426108da91906113fd565b119050600080600080549050119050600080471190508380156108fa5750825b80156109035750815b801561090c5750805b955050505050915091565b60007f0000000000000000000000000000000000000000000000000000000000000000905090565b60007f0000000000000000000000000000000000000000000000000000000000000000905090565b600080828154811061097c5761097b611431565b5b9060005260206000200160009054906101000a900473ffffffffffffffffffffffffffffffffffffffff169050919050565b60008080549050905090565b60008080549050826000815181106109d5576109d4611431565b5b60200260200101516109e7919061148f565b905060008082815481106109fe576109fd611431565b5b9060005260206000200160009054906101000a900473ffffffffffffffffffffffffffffffffffffffff16905080600160006101000a81548173ffffffffffffffffffffffffffffffffffffffff021916908373ffffffffffffffffffffffffffffffffffffffff1602179055506000600160146101000a81548160ff02191690836001811115610a9257610a91610cc6565b5b0217905550600067ffffffffffffffff811115610ab257610ab1610dae565b5b604051908082528060200260200182016040528015610ae05781602001602082028036833780820191505090505b5060009080519060200190610af6929190610beb565b504260028190555060008173ffffffffffffffffffffffffffffffffffffffff1647604051610b24906114f1565b60006040518083038185875af1925050503d8060008114610b61576040519150601f19603f3d011682016040523d82523d6000602084013e610b66565b606091505b5050905080610ba1576040517f0b78036f00000000000000000000000000000000000000000000000000000000815260040160405180910390fd5b8173ffffffffffffffffffffffffffffffffffffffff167f5b690ec4a06fe979403046eaeea5b3ce38524683c3001f662c8b5a829632f7df60405160405180910390a25050505050565b828054828255906000526020600020908101928215610c64579160200282015b82811115610c635782518260006101000a81548173ffffffffffffffffffffffffffffffffffffffff021916908373ffffffffffffffffffffffffffffffffffffffff16021790555091602001919060010190610c0b565b5b509050610c719190610c75565b5090565b5b80821115610c8e576000816000905550600101610c76565b5090565b6000819050919050565b610ca581610c92565b82525050565b6000602082019050610cc06000830184610c9c565b92915050565b7f4e487b7100000000000000000000000000000000000000000000000000000000600052602160045260246000fd5b60028110610d0657610d05610cc6565b5b50565b6000819050610d1782610cf5565b919050565b6000610d2782610d09565b9050919050565b610d3781610d1c565b82525050565b6000602082019050610d526000830184610d2e565b92915050565b6000604051905090565b600080fd5b600080fd5b610d7581610c92565b8114610d8057600080fd5b50565b600081359050610d9281610d6c565b92915050565b600080fd5b6000601f19601f8301169050919050565b7f4e487b7100000000000000000000000000000000000000000000000000000000600052604160045260246000fd5b610de682610d9d565b810181811067ffffffffffffffff82111715610e0557610e04610dae565b5b80604052505050565b6000610e18610d58565b9050610e248282610ddd565b919050565b600067ffffffffffffffff821115610e4457610e43610dae565b5b602082029050602081019050919050565b600080fd5b6000610e6d610e6884610e29565b610e0e565b90508083825260208201905060208402830185811115610e9057610e8f610e55565b5b835b81811015610eb95780610ea58882610d83565b845260208401935050602081019050610e92565b5050509392505050565b600082601f830112610ed857610ed7610d98565b5b8135610ee8848260208601610e5a565b91505092915050565b60008060408385031215610f0857610f07610d62565b5b6000610f1685828601610d83565b925050602083013567ffffffffffffffff811115610f3757610f36610d67565b5b610f4385828601610ec3565b9150509250929050565b600080fd5b60008083601f840112610f6857610f67610d98565b5b8235905067ffffffffffffffff811115610f8557610f84610f4d565b5b602083019150836001820283011115610fa157610fa0610e55565b5b9250929050565b60008060208385031215610fbf57610fbe610d62565b5b600083013567ffffffffffffffff811115610fdd57610fdc610d67565b5b610fe985828601610f52565b92509250509250929050565b600073ffffffffffffffffffffffffffffffffffffffff82169050919050565b600061102082610ff5565b9050919050565b61103081611015565b82525050565b600060208201905061104b6000830184611027565b92915050565b600080fd5b600067ffffffffffffffff82111561107157611070610dae565b5b61107a82610d9d565b9050602081019050919050565b82818337600083830152505050565b60006110a96110a484611056565b610e0e565b9050828152602081018484840111156110c5576110c4611051565b5b6110d0848285611087565b509392505050565b600082601f8301126110ed576110ec610d98565b5b81356110fd848260208601611096565b91505092915050565b60006020828403121561111c5761111b610d62565b5b600082013567ffffffffffffffff81111561113a57611139610d67565b5b611146848285016110d8565b91505092915050565b60008115159050919050565b6111648161114f565b82525050565b600081519050919050565b600082825260208201905092915050565b60005b838110156111a4578082015181840152602081019050611189565b60008484015250505050565b60006111bb8261116a565b6111c58185611175565b93506111d5818560208601611186565b6111de81610d9d565b840191505092915050565b60006040820190506111fe600083018561115b565b818103602083015261121081846111b0565b90509392505050565b600067ffffffffffffffff82169050919050565b61123681611219565b82525050565b6000602082019050611251600083018461122d565b92915050565b60006020828403121561126d5761126c610d62565b5b600061127b84828501610d83565b91505092915050565b60006040820190506112996000830185611027565b6112a66020830184611027565b9392505050565b60006060820190506112c26000830186610c9c565b6112cf6020830185610c9c565b6112dc6040830184610c9c565b949350505050565b6000819050919050565b6112f7816112e4565b82525050565b600061ffff82169050919050565b611314816112fd565b82525050565b600063ffffffff82169050919050565b6113338161131a565b82525050565b600060a08201905061134e60008301886112ee565b61135b602083018761122d565b611368604083018661130b565b611375606083018561132a565b611382608083018461132a565b9695505050505050565b60008151905061139b81610d6c565b92915050565b6000602082840312156113b7576113b6610d62565b5b60006113c58482850161138c565b91505092915050565b7f4e487b7100000000000000000000000000000000000000000000000000000000600052601160045260246000fd5b600061140882610c92565b915061141383610c92565b925082820390508181111561142b5761142a6113ce565b5b92915050565b7f4e487b7100000000000000000000000000000000000000000000000000000000600052603260045260246000fd5b7f4e487b7100000000000000000000000000000000000000000000000000000000600052601260045260246000fd5b600061149a82610c92565b91506114a583610c92565b9250826114b5576114b4611460565b5b828206905092915050565b600081905092915050565b50565b60006114db6000836114c0565b91506114e6826114cb565b600082019050919050565b60006114fc826114ce565b915081905091905056fea26469706673582212206569f0f2238ba58dea332cf3bfcddad8dda924331127ccb1996f8c4e6b31f4ae64736f6c63430008110033",
  "devdoc": {
    "author": "Venus Chou",
    "details": "This implements Chainlink VRF v2 and Chainlink Keepers",
    "kind": "dev",
    "methods": {
      "checkUpkeep(bytes)": {
        "details": "This is the function that the Chainlink Keeper nodes call they look for the `upKeepNeeded` to return true The following should be true in order to return true: 1. Our time interval should have passed 2. The lotterry should have at least one player and have some eth 3. Our subscription is funded with LINK 4. The lottery should be in an \"open\" state.    When we are waiting for a random number, the lottery should be in \"close\" or \"calculating\" state."
      }
    },
    "title": "A sample Raffle Contract",
    "version": 1
  },
  "userdoc": {
    "kind": "user",
    "methods": {},
    "notice": "This contract is for creating an untemperable decentralized smart contract",
    "version": 1
  },
  "storageLayout": {
    "storage": [
      {
        "astId": 204,
        "contract": "contracts/Raffle.sol:Raffle",
        "label": "s_players",
        "offset": 0,
        "slot": "0",
        "type": "t_array(t_address_payable)dyn_storage"
      },
      {
        "astId": 221,
        "contract": "contracts/Raffle.sol:Raffle",
        "label": "s_recentWinner",
        "offset": 0,
        "slot": "1",
        "type": "t_address"
      },
      {
        "astId": 224,
        "contract": "contracts/Raffle.sol:Raffle",
        "label": "s_raffleState",
        "offset": 20,
        "slot": "1",
        "type": "t_enum(RaffleState)199"
      },
      {
        "astId": 226,
        "contract": "contracts/Raffle.sol:Raffle",
        "label": "s_lastTimeStamp",
        "offset": 0,
        "slot": "2",
        "type": "t_uint256"
      }
    ],
    "types": {
      "t_address": {
        "encoding": "inplace",
        "label": "address",
        "numberOfBytes": "20"
      },
      "t_address_payable": {
        "encoding": "inplace",
        "label": "address payable",
        "numberOfBytes": "20"
      },
      "t_array(t_address_payable)dyn_storage": {
        "base": "t_address_payable",
        "encoding": "dynamic_array",
        "label": "address payable[]",
        "numberOfBytes": "32"
      },
      "t_enum(RaffleState)199": {
        "encoding": "inplace",
        "label": "enum Raffle.RaffleState",
        "numberOfBytes": "1"
      },
      "t_uint256": {
        "encoding": "inplace",
        "label": "uint256",
        "numberOfBytes": "32"
      }
    }
  }
}